:020000040800F2
:1000000000A00020A1070008E7070008E907000892
:10001000EB070008ED070008EF07000800000000EC
:10002000000000000000000000000000F1070008D0
:10003000F307000800000000F50700085504000859
:10004000F9070008FB070008FD070008FF07000884
:100050000108000803080008050800080708000850
:10006000090800080B0800080D0800080F08000820
:1000700011080008130800081508000817080008F0
:10008000190800081B0800081D0800081F080008C0
:100090002108000823080008250800082708000890
:1000A000290800082B0800082D0800082F08000860
:1000B0003108000833080008350800083708000830
:1000C000390800083B0800083D0800083F08000800
:1000D00041080008430800084508000847080008D0
:1000E000490800084B0800084D0800084F080008A0
:1000F0005108000853080008550800085708000870
:100100000000000000000000000000005908000886
:100110005B0800085D0800085F0800086108000827
:1001200063080008650800086708000869080008F7
:100130006B0800086D0800080000000000000000C7
:100140006F0800087108000873080008000000002C
:10015000000000000000000000000000000000009F
:100160000000000000000000750800087708000883
:1001700079080008000000000000000000000000F6
:10018000000000007B08000810B5054C237833B947
:10019000044B13B10448AFF300800123237010BD5A
:1001A0008400002000000000580A0008084B10B529
:1001B0001BB108490848AFF300800848036803B939
:1001C00010BD074B002BFBD0BDE81040184700BF07
:1001D0000000000088000020580A00088400002069
:1001E00000000000154B002B08BF134B9D46A3F5E4
:1001F000803A00218B460F461348144A121A00F029
:10020000A5FB0F4B002B00D098470E4B002B00D0C6
:1002100098470020002104000D000D48002802D05E
:100220000C48AFF3008000F06BFB2000290000F0C9
:1002300019F900F051FB00BF0000080000A00020E9
:10024000000000000000000084000020B400002036
:100250000000000000000000034A938A9BB283F470
:1002600080539382704700BF0004004808B5FFF731
:10027000F3FF08BD0A684B681344044A12689342AE
:1002800002D20A600120704700207047A0000020C1
:1002900000B583B001214FF4802000F0EFF8012376
:1002A0008DF804308DF8053002A94FF4805341F8E1
:1002B000083D034800F0FEF803B05DF804FB00BF02
:1002C0000004004808B500F025FA0C4B1B680C4AE6
:1002D000A2FB03239B09013BB3F1807F09D2094AAA
:1002E0005360F021084B83F8231000239360072309
:1002F00013600022044B83F8232008BD1000002067
:10030000D34D621010E000E000ED00E010B50446AF
:10031000044B0360FFF7D6FF2046FFF7B9FF2046E6
:1003200010BD00BF440A0008F0B58BB001214FF4A6
:10033000802000F0A3F801214FF4003000F09EF877
:1003400001214FF4004000F0A7F83823089302275A
:100350008DF824708DF8257000248DF826408DF8D6
:100360002740294D08A9284600F0A4F806220321B9
:10037000284600F0EBF806220421284600F0E6F8B3
:1003800006220521284600F0E1F84FF48075069515
:1003900001268DF81C608DF81D708DF81E408DF8BB
:1003A0001F4006A94FF0904000F084F829464FF016
:1003B000904000F0C9F8ADF804404FF48273ADF8F6
:1003C00006304FF47063ADF80830ADF80A40ADF870
:1003D0000C604FF40073ADF80E301023ADF8103000
:1003E000ADF812400723ADF81430084C01A920469F
:1003F00000F0C4F83146204600F002F929462046B4
:1004000000F00CF90BB0F0BD00040048003C0040C7
:1004100038B504460C4B5B6813F0010F0BD10D4649
:100420000A4800F02FFA30B1074803688360C560BE
:10043000043000F033FA06492046FFF71BFF10B1E5
:100440002046FFF713FF38BDA0000020A4000020C5
:10045000A8000020024A136801331360704700BFF0
:10046000A000002000B583B001A8FFF74FFF4FF4B4
:10047000FA7101A8FFF7CCFFF9E700BF21B1054BE6
:100480005A69104358617047024A536923EA0000D1
:10049000506170470010024021B1054BDA691043EA
:1004A000D8617047024AD36923EA0000D0617047DF
:1004B0000010024070B4002341E001229A400C6811
:1004C000A2433BD10A79013AD2B2012A1CD88568ED
:1004D0005A000324944025EA0404846085684C791A
:1004E00004FA02F22A4382608488A5B29AB20124F7
:1004F000944025EA040484808588ADB28C7904FA9E
:1005000002F292B22A43828004685A00032505FA57
:1005100002F624EA0604046006680C799440344329
:100520000460C4689EB27600B54024EA0505C56043
:10053000C568CC7904FA02F22A43C26001330F2B5A
:10054000BBD970BC704700BF8161704730B401F007
:1005500007039B009A40C908083150F821400F2535
:1005600005FA03F324EA030340F8213050F8213060
:100570001A4340F8212030BC704700BF70B44B884C
:10058000B3F5827F18D1058805F441550A881343D5
:10059000CE880A8916434C898A892243CC89224312
:1005A000324313432B43038083889BB223F470634D
:1005B0008A881343838019E083889BB223F4706395
:1005C0008A8813438380038803F441550E884B883F
:1005D0001E43CA880B8913434C898A892243CC89DC
:1005E00022431A4346EA02032B430380838B9BB2C8
:1005F00023F400639BB283830B8A038270BC704731
:1006000029B103889BB243F04003038070470388FD
:100610009BB223F040039BB2038070474FF6FF6309
:10062000994205D003889BB243F4807303807047DE
:1006300003889BB223F480739BB20380704700BF92
:100640001222164B1A60A3F580535A685A605A68F2
:100650005A605A6842F480625A605A6822F47C12E6
:100660005A605A6842F460125A601A6842F0807206
:100670001A600B4B1B6813F0007FFAD0084B5A68C6
:1006800022F003025A605A6842F002025A60044B98
:100690005B6803F00C03082BF9D17047002002407F
:1006A0000010024010B5174CD4F8883043F47003A2
:1006B000C4F88830144B1A6842F001021A60596875
:1006C000124A0A405A601A6822F0847222F4803278
:1006D0001A601A6822F480221A605A6822F4FE0214
:1006E0005A60DA6A22F00F02DA62196B084A0A408D
:1006F0001A6300229A60FFF7A3FF4FF00063A36024
:1007000010BD00BF00ED00E0001002400CC07FF8FB
:10071000CCFC00FF1D4B5B6803F00C03042B06D0E0
:10072000082B08D01BBB1A4A1A4B1A6022E0184A41
:10073000184B1A601EE0154A53685268C3F383438E
:10074000023312F4803F05D1134A02FB03F3114A2E
:1007500013600FE00D4AD26A02F00F02511C0C4ADE
:10076000B2FBF1F202FB03F30A4A136002E0084A0B
:10077000084B1A60054B5B68C3F30313074AD35C4D
:10078000DAB204490B68D3400B6070470010024096
:1007900000127A001000002000093D000000002037
:1007A0000649074A074B9A42BEBF51F8040B42F86C
:1007B000040BF8E70448804704480047640A00082F
:1007C0000000002084000020A5060008E5010008C4
:1007D0002A492B4A002301E041F8043B9142FBD314
:1007E000FFF740FEFEE7FEE7FEE7FEE7FEE7FEE777
:1007F000FEE7FEE7FEE7FEE7FEE7FEE7FEE7FEE7D1
:10080000FEE7FEE7FEE7FEE7FEE7FEE7FEE7FEE7C0
:10081000FEE7FEE7FEE7FEE7FEE7FEE7FEE7FEE7B0
:10082000FEE7FEE7FEE7FEE7FEE7FEE7FEE7FEE7A0
:10083000FEE7FEE7FEE7FEE7FEE7FEE7FEE7FEE790
:10084000FEE7FEE7FEE7FEE7FEE7FEE7FEE7FEE780
:10085000FEE7FEE7FEE7FEE7FEE7FEE7FEE7FEE770
:10086000FEE7FEE7FEE7FEE7FEE7FEE7FEE7FEE760
:10087000FEE7FEE7FEE7FEE7FEE7FEE78400002076
:10088000B40000200368DB0706D4437803B1FFDE21
:10089000012343701846704700207047012303600E
:1008A000704708B500F00CF808B5804700F00DF867
:1008B000024B1868BFF35F8F704700BF1400002021
:1008C00008B5FFF7F5FFFFF7EFFF08B5062000F0CA
:1008D0006FF8012000F098F808B5074B044613B1F3
:1008E0000021AFF30080054B1868836A03B1984775
:1008F000204600F089F800BF00000000540A0008FC
:1009000070B50E4B0E4CE41AA41000251E46A542ED
:1009100004D056F8253098470135F8E700F076F80E
:10092000084C094BE41AA41000251E46A54204D029
:1009300056F8253098470135F8E770BD7C00002057
:100940007C000020800000207C0000200244034640
:10095000934202D003F8011BFAE770471F2938B50C
:1009600004460D4604D9162303604FF0FF3038BD0E
:10097000426C12B152F821304BB9204600F032F8E7
:100980002A4601462046BDE8384000F019B8012B40
:100990000CD0591C03D116230360012038BD00245C
:1009A000284642F825409847204638BD002038BDEB
:1009B000024B01461868FFF7D1BF00BF7800002046
:1009C00038B5074C0023054608461146236000F061
:1009D00013F8431C02D1236803B12B6038BD00BF5C
:1009E000B000002000F000B8024B58221A604FF00F
:1009F000FF307047B0000020024B58221A604FF0C1
:100A0000FF307047B0000020FEE700BFF8B500BF20
:100A1000F8BC08BC9E467047F8B500BFF8BC08BCDF
:100A20009E4670470000000000000000A308000878
:100A3000A3080008A3080008A3080008000000009D
:100A40000000000029030008C50200089102000808
:0C0A5000590200081800002000000000FF
:080A5C0088F7FF7F0100000094
:100A6400000000000000000001020304060708095A
:100A740000A24A04CB0800080000000000000000A7
:100A84000000000000000000000000000000000062
:100A94000000000000000000000000000000000052
:100AA4000000000000000000000000000000000042
:100AB4000000000000000000000000000000000032
:100AC4000000000000000000000000000000000022
:100AD400000000000000000018000020AD01000824
:040AE400890100087C
:0400000508000000EF
:00000001FF
